{"abi":[{"type":"constructor","inputs":[{"name":"_subscriptionId","type":"uint64","internalType":"uint64"}],"stateMutability":"nonpayable"},{"type":"function","name":"PRICE_IN_USD","inputs":[],"outputs":[{"name":"","type":"uint256","internalType":"uint256"}],"stateMutability":"view"},{"type":"function","name":"approve","inputs":[{"name":"to","type":"address","internalType":"address"},{"name":"tokenId","type":"uint256","internalType":"uint256"}],"outputs":[],"stateMutability":"nonpayable"},{"type":"function","name":"balanceOf","inputs":[{"name":"owner","type":"address","internalType":"address"}],"outputs":[{"name":"","type":"uint256","internalType":"uint256"}],"stateMutability":"view"},{"type":"function","name":"getApproved","inputs":[{"name":"tokenId","type":"uint256","internalType":"uint256"}],"outputs":[{"name":"","type":"address","internalType":"address"}],"stateMutability":"view"},{"type":"function","name":"getConversionRate","inputs":[{"name":"ethAmount","type":"uint256","internalType":"uint256"}],"outputs":[{"name":"","type":"uint256","internalType":"uint256"}],"stateMutability":"view"},{"type":"function","name":"getNFTPrice","inputs":[{"name":"tokenId","type":"uint256","internalType":"uint256"}],"outputs":[{"name":"","type":"uint256","internalType":"uint256"}],"stateMutability":"view"},{"type":"function","name":"getThePrice","inputs":[],"outputs":[{"name":"","type":"int256","internalType":"int256"}],"stateMutability":"view"},{"type":"function","name":"getVersion","inputs":[],"outputs":[{"name":"","type":"uint256","internalType":"uint256"}],"stateMutability":"view"},{"type":"function","name":"isApprovedForAll","inputs":[{"name":"owner","type":"address","internalType":"address"},{"name":"operator","type":"address","internalType":"address"}],"outputs":[{"name":"","type":"bool","internalType":"bool"}],"stateMutability":"view"},{"type":"function","name":"mintNFT","inputs":[],"outputs":[],"stateMutability":"payable"},{"type":"function","name":"name","inputs":[],"outputs":[{"name":"","type":"string","internalType":"string"}],"stateMutability":"view"},{"type":"function","name":"nftPrices","inputs":[{"name":"","type":"uint256","internalType":"uint256"}],"outputs":[{"name":"","type":"uint256","internalType":"uint256"}],"stateMutability":"view"},{"type":"function","name":"owner","inputs":[],"outputs":[{"name":"","type":"address","internalType":"address"}],"stateMutability":"view"},{"type":"function","name":"ownerOf","inputs":[{"name":"tokenId","type":"uint256","internalType":"uint256"}],"outputs":[{"name":"","type":"address","internalType":"address"}],"stateMutability":"view"},{"type":"function","name":"randomResult","inputs":[],"outputs":[{"name":"","type":"uint256","internalType":"uint256"}],"stateMutability":"view"},{"type":"function","name":"rawFulfillRandomWords","inputs":[{"name":"requestId","type":"uint256","internalType":"uint256"},{"name":"randomWords","type":"uint256[]","internalType":"uint256[]"}],"outputs":[],"stateMutability":"nonpayable"},{"type":"function","name":"renounceOwnership","inputs":[],"outputs":[],"stateMutability":"nonpayable"},{"type":"function","name":"requestRandomNumber","inputs":[],"outputs":[],"stateMutability":"nonpayable"},{"type":"function","name":"safeTransferFrom","inputs":[{"name":"from","type":"address","internalType":"address"},{"name":"to","type":"address","internalType":"address"},{"name":"tokenId","type":"uint256","internalType":"uint256"}],"outputs":[],"stateMutability":"nonpayable"},{"type":"function","name":"safeTransferFrom","inputs":[{"name":"from","type":"address","internalType":"address"},{"name":"to","type":"address","internalType":"address"},{"name":"tokenId","type":"uint256","internalType":"uint256"},{"name":"data","type":"bytes","internalType":"bytes"}],"outputs":[],"stateMutability":"nonpayable"},{"type":"function","name":"setApprovalForAll","inputs":[{"name":"operator","type":"address","internalType":"address"},{"name":"approved","type":"bool","internalType":"bool"}],"outputs":[],"stateMutability":"nonpayable"},{"type":"function","name":"supportsInterface","inputs":[{"name":"interfaceId","type":"bytes4","internalType":"bytes4"}],"outputs":[{"name":"","type":"bool","internalType":"bool"}],"stateMutability":"view"},{"type":"function","name":"symbol","inputs":[],"outputs":[{"name":"","type":"string","internalType":"string"}],"stateMutability":"view"},{"type":"function","name":"tokenURI","inputs":[{"name":"tokenId","type":"uint256","internalType":"uint256"}],"outputs":[{"name":"","type":"string","internalType":"string"}],"stateMutability":"view"},{"type":"function","name":"totalSupply","inputs":[],"outputs":[{"name":"","type":"uint256","internalType":"uint256"}],"stateMutability":"view"},{"type":"function","name":"transferFrom","inputs":[{"name":"from","type":"address","internalType":"address"},{"name":"to","type":"address","internalType":"address"},{"name":"tokenId","type":"uint256","internalType":"uint256"}],"outputs":[],"stateMutability":"nonpayable"},{"type":"function","name":"transferOwnership","inputs":[{"name":"newOwner","type":"address","internalType":"address"}],"outputs":[],"stateMutability":"nonpayable"},{"type":"function","name":"withdraw","inputs":[],"outputs":[],"stateMutability":"nonpayable"},{"type":"event","name":"Approval","inputs":[{"name":"owner","type":"address","indexed":true,"internalType":"address"},{"name":"approved","type":"address","indexed":true,"internalType":"address"},{"name":"tokenId","type":"uint256","indexed":true,"internalType":"uint256"}],"anonymous":false},{"type":"event","name":"ApprovalForAll","inputs":[{"name":"owner","type":"address","indexed":true,"internalType":"address"},{"name":"operator","type":"address","indexed":true,"internalType":"address"},{"name":"approved","type":"bool","indexed":false,"internalType":"bool"}],"anonymous":false},{"type":"event","name":"OwnershipTransferred","inputs":[{"name":"previousOwner","type":"address","indexed":true,"internalType":"address"},{"name":"newOwner","type":"address","indexed":true,"internalType":"address"}],"anonymous":false},{"type":"event","name":"RequestedRandomness","inputs":[{"name":"requestId","type":"uint64","indexed":false,"internalType":"uint64"}],"anonymous":false},{"type":"event","name":"Transfer","inputs":[{"name":"from","type":"address","indexed":true,"internalType":"address"},{"name":"to","type":"address","indexed":true,"internalType":"address"},{"name":"tokenId","type":"uint256","indexed":true,"internalType":"uint256"}],"anonymous":false},{"type":"error","name":"ERC721IncorrectOwner","inputs":[{"name":"sender","type":"address","internalType":"address"},{"name":"tokenId","type":"uint256","internalType":"uint256"},{"name":"owner","type":"address","internalType":"address"}]},{"type":"error","name":"ERC721InsufficientApproval","inputs":[{"name":"operator","type":"address","internalType":"address"},{"name":"tokenId","type":"uint256","internalType":"uint256"}]},{"type":"error","name":"ERC721InvalidApprover","inputs":[{"name":"approver","type":"address","internalType":"address"}]},{"type":"error","name":"ERC721InvalidOperator","inputs":[{"name":"operator","type":"address","internalType":"address"}]},{"type":"error","name":"ERC721InvalidOwner","inputs":[{"name":"owner","type":"address","internalType":"address"}]},{"type":"error","name":"ERC721InvalidReceiver","inputs":[{"name":"receiver","type":"address","internalType":"address"}]},{"type":"error","name":"ERC721InvalidSender","inputs":[{"name":"sender","type":"address","internalType":"address"}]},{"type":"error","name":"ERC721NonexistentToken","inputs":[{"name":"tokenId","type":"uint256","internalType":"uint256"}]},{"type":"error","name":"OnlyCoordinatorCanFulfill","inputs":[{"name":"have","type":"address","internalType":"address"},{"name":"want","type":"address","internalType":"address"}]},{"type":"error","name":"OwnableInvalidOwner","inputs":[{"name":"owner","type":"address","internalType":"address"}]},{"type":"error","name":"OwnableUnauthorizedAccount","inputs":[{"name":"account","type":"address","internalType":"address"}]}],"bytecode":{"object":"0x60a0604052600b805465ffffffffffff19166403000186a0179055600d805463ffffffff19166001179055348015610035575f80fd5b50604051611d00380380611d00833981016040819052610054916101e3565b738103b0a8a00be2ddc778e6e7eaa21791cd3646253360405180604001604052806005815260200164135e53919560da1b815250604051806040016040528060048152602001631353919560e21b815250815f90816100b391906102a8565b5060016100c082826102a8565b5050506001600160a01b0381166100f057604051631e4fbdf760e01b81525f600482015260240160405180910390fd5b6100f981610192565b506001600160a01b0316608052600880546001600160a01b03191673694aa1769357215de4fac081bf1f309adc325306179055600980546001600160401b03909216600160a01b026001600160e01b031990921691909117738103b0a8a00be2ddc778e6e7eaa21791cd3646251790557f474e34a077df58807dbe9c96d3c009b23b3c6d0cce433e59bbf5b34f823bc56c600a55610367565b600680546001600160a01b038381166001600160a01b0319831681179093556040519116919082907f8be0079c531659141344cd1fd0a4f28419497f9722a3daafe3b4186f6b6457e0905f90a35050565b5f602082840312156101f3575f80fd5b81516001600160401b0381168114610209575f80fd5b9392505050565b634e487b7160e01b5f52604160045260245ffd5b600181811c9082168061023857607f821691505b60208210810361025657634e487b7160e01b5f52602260045260245ffd5b50919050565b601f8211156102a357805f5260205f20601f840160051c810160208510156102815750805b601f840160051c820191505b818110156102a0575f815560010161028d565b50505b505050565b81516001600160401b038111156102c1576102c1610210565b6102d5816102cf8454610224565b8461025c565b602080601f831160018114610308575f84156102f15750858301515b5f19600386901b1c1916600185901b17855561035f565b5f85815260208120601f198616915b8281101561033657888601518255948401946001909101908401610317565b508582101561035357878501515f19600388901b60f8161c191681555b505060018460011b0185555b505050505050565b60805161197a6103865f395f81816107ee0152610830015261197a5ff3fe6080604052600436106101af575f3560e01c806370a08231116100e757806395d89b4111610087578063c87b56dd11610062578063c87b56dd1461046b578063d9f10a2b1461048a578063e985e9c5146104b5578063f2fde38b146104d4575f80fd5b806395d89b4114610419578063a22cb4651461042d578063b88d4fde1461044c575f80fd5b80638c3c9a55116100c25780638c3c9a55146103a95780638da5cb5b146103bd578063914db51a146103da57806392976179146103ee575f80fd5b806370a0823114610362578063715018a6146103815780638678a7b214610395575f80fd5b80631fe543e31161015257806342619f661161012d57806342619f66146102f057806342842e0e146103055780636352211e146103245780636e5b6b2814610343575f80fd5b80631fe543e31461029e57806323b872dd146102bd5780633ccfd60b146102dc575f80fd5b8063095ea7b31161018d578063095ea7b31461023f5780630d8e6e2c1461026057806314f710fe1461028257806318160ddd1461028a575f80fd5b806301ffc9a7146101b357806306fdde03146101e7578063081812fc14610208575b5f80fd5b3480156101be575f80fd5b506101d26101cd366004611453565b6104f3565b60405190151581526020015b60405180910390f35b3480156101f2575f80fd5b506101fb610544565b6040516101de919061149c565b348015610213575f80fd5b506102276102223660046114ae565b6105d3565b6040516001600160a01b0390911681526020016101de565b34801561024a575f80fd5b5061025e6102593660046114e0565b6105fa565b005b34801561026b575f80fd5b50610274610609565b6040519081526020016101de565b61025e610679565b348015610295575f80fd5b50600754610274565b3480156102a9575f80fd5b5061025e6102b836600461154d565b6107e3565b3480156102c8575f80fd5b5061025e6102d73660046115fa565b610867565b3480156102e7575f80fd5b5061025e6108ea565b3480156102fb575f80fd5b50610274600c5481565b348015610310575f80fd5b5061025e61031f3660046115fa565b610997565b34801561032f575f80fd5b5061022761033e3660046114ae565b6109b6565b34801561034e575f80fd5b5061027461035d3660046114ae565b6109c0565b34801561036d575f80fd5b5061027461037c366004611633565b6109ee565b34801561038c575f80fd5b5061025e610a33565b3480156103a0575f80fd5b5061025e610a46565b3480156103b4575f80fd5b50610274610b40565b3480156103c8575f80fd5b506006546001600160a01b0316610227565b3480156103e5575f80fd5b50610274600a81565b3480156103f9575f80fd5b506102746104083660046114ae565b5f908152600e602052604090205490565b348015610424575f80fd5b506101fb610bc1565b348015610438575f80fd5b5061025e61044736600461164c565b610bd0565b348015610457575f80fd5b5061025e610466366004611685565b610bdb565b348015610476575f80fd5b506101fb6104853660046114ae565b610bf3565b348015610495575f80fd5b506102746104a43660046114ae565b600e6020525f908152604090205481565b3480156104c0575f80fd5b506101d26104cf36600461173e565b610c64565b3480156104df575f80fd5b5061025e6104ee366004611633565b610c91565b5f6001600160e01b031982166380ac58cd60e01b148061052357506001600160e01b03198216635b5e139f60e01b145b8061053e57506301ffc9a760e01b6001600160e01b03198316145b92915050565b60605f80546105529061176f565b80601f016020809104026020016040519081016040528092919081815260200182805461057e9061176f565b80156105c95780601f106105a0576101008083540402835291602001916105c9565b820191905f5260205f20905b8154815290600101906020018083116105ac57829003601f168201915b5050505050905090565b5f6105dd82610ccb565b505f828152600460205260409020546001600160a01b031661053e565b610605828233610d03565b5050565b6008546040805163054fd4d560e41b815290515f926001600160a01b0316916354fd4d509160048083019260209291908290030181865afa158015610650573d5f803e3d5ffd5b505050506040513d601f19601f8201168201806040525081019061067491906117a7565b905090565b5f610682610b40565b90505f81610699600a670de0b6b3a76400006117d2565b6106a391906117fd565b9050803410156106fa5760405162461bcd60e51b815260206004820152601c60248201527f496e73756666696369656e742045544820746f206d696e74204e46540000000060448201526064015b60405180910390fd5b600160075f82825461070c9190611810565b90915550506007545f90610721906001611810565b90505f600c54116107745760405162461bcd60e51b815260206004820152601760248201527f52616e646f6d206e756d626572206e6f7420726561647900000000000000000060448201526064016106f1565b5f600c54600861078491906117d2565b5f838152600e6020526040902081905590506107a03383610d10565b823411156107dd57336108fc6107b68534611823565b6040518115909202915f818181858888f193505050501580156107db573d5f803e3d5ffd5b505b50505050565b336001600160a01b037f0000000000000000000000000000000000000000000000000000000000000000161461085d5760405163073e64fd60e21b81523360048201526001600160a01b037f00000000000000000000000000000000000000000000000000000000000000001660248201526044016106f1565b6106058282610d29565b6001600160a01b03821661089057604051633250574960e11b81525f60048201526024016106f1565b5f61089c838333610d61565b9050836001600160a01b0316816001600160a01b0316146107dd576040516364283d7b60e01b81526001600160a01b03808616600483015260248201849052821660448201526064016106f1565b6108f2610e53565b5f6109056006546001600160a01b031690565b6001600160a01b0316476040515f6040518083038185875af1925050503d805f811461094c576040519150601f19603f3d011682016040523d82523d5f602084013e610951565b606091505b50509050806109945760405162461bcd60e51b815260206004820152600f60248201526e15da5d1a191c985dc819985a5b1959608a1b60448201526064016106f1565b50565b6109b183838360405180602001604052805f815250610bdb565b505050565b5f61053e82610ccb565b5f806109ca610b40565b90505f6305f5e1006109dc85846117d2565b6109e691906117fd565b949350505050565b5f6001600160a01b038216610a18576040516322718ad960e21b81525f60048201526024016106f1565b506001600160a01b03165f9081526003602052604090205490565b610a3b610e53565b610a445f610e80565b565b600954600a54600b54600d546040516305d3b1d360e41b81526004810193909352600160a01b840467ffffffffffffffff166024840152640100000000820461ffff16604484015263ffffffff91821660648401521660848201526001600160a01b0390911690635d3b1d309060a4016020604051808303815f875af1158015610ad2573d5f803e3d5ffd5b505050506040513d601f19601f82011682018060405250810190610af691906117a7565b50600954604051600160a01b90910467ffffffffffffffff1681527f1415c4618a887ebb10f07f821c99fa79f752b52e7ad8ed6765ac0b094c67053b9060200160405180910390a1565b5f8060085f9054906101000a90046001600160a01b03166001600160a01b031663feaf968c6040518163ffffffff1660e01b815260040160a060405180830381865afa158015610b92573d5f803e3d5ffd5b505050506040513d601f19601f82011682018060405250810190610bb6919061184f565b509195945050505050565b6060600180546105529061176f565b610605338383610ed1565b610be6848484610867565b6107dd3385858585610f6f565b6060610bfe82610ccb565b505f610c1460408051602081019091525f815290565b90505f815111610c325760405180602001604052805f815250610c5d565b80610c3c84611096565b604051602001610c4d9291906118b2565b6040516020818303038152906040525b9392505050565b6001600160a01b039182165f90815260056020908152604080832093909416825291909152205460ff1690565b610c99610e53565b6001600160a01b038116610cc257604051631e4fbdf760e01b81525f60048201526024016106f1565b61099481610e80565b5f818152600260205260408120546001600160a01b03168061053e57604051637e27328960e01b8152600481018490526024016106f1565b6109b18383836001611126565b610605828260405180602001604052805f81525061122a565b600a815f81518110610d3d57610d3d6118c6565b6020026020010151610d4f91906118da565b610d5a906001611810565b600c555050565b5f828152600260205260408120546001600160a01b0390811690831615610d8d57610d8d818486611241565b6001600160a01b03811615610dc757610da85f855f80611126565b6001600160a01b0381165f90815260036020526040902080545f190190555b6001600160a01b03851615610df5576001600160a01b0385165f908152600360205260409020805460010190555b5f8481526002602052604080822080546001600160a01b0319166001600160a01b0389811691821790925591518793918516917fddf252ad1be2c89b69c2b068fc378daa952ba7f163c4a11628f55a4df523b3ef91a4949350505050565b6006546001600160a01b03163314610a445760405163118cdaa760e01b81523360048201526024016106f1565b600680546001600160a01b038381166001600160a01b0319831681179093556040519116919082907f8be0079c531659141344cd1fd0a4f28419497f9722a3daafe3b4186f6b6457e0905f90a35050565b6001600160a01b038216610f0357604051630b61174360e31b81526001600160a01b03831660048201526024016106f1565b6001600160a01b038381165f81815260056020908152604080832094871680845294825291829020805460ff191686151590811790915591519182527f17307eab39ab6107e8899845ad3d59bd9653f200f220920489ca2b5937696c31910160405180910390a3505050565b6001600160a01b0383163b156107db57604051630a85bd0160e11b81526001600160a01b0384169063150b7a0290610fb19088908890879087906004016118ed565b6020604051808303815f875af1925050508015610feb575060408051601f3d908101601f19168201909252610fe891810190611929565b60015b611052573d808015611018576040519150601f19603f3d011682016040523d82523d5f602084013e61101d565b606091505b5080515f0361104a57604051633250574960e11b81526001600160a01b03851660048201526024016106f1565b805181602001fd5b6001600160e01b03198116630a85bd0160e11b1461108e57604051633250574960e11b81526001600160a01b03851660048201526024016106f1565b505050505050565b60605f6110a2836112a5565b60010190505f8167ffffffffffffffff8111156110c1576110c1611508565b6040519080825280601f01601f1916602001820160405280156110eb576020820181803683370190505b5090508181016020015b5f19016f181899199a1a9b1b9c1cb0b131b232b360811b600a86061a8153600a85049450846110f557509392505050565b808061113a57506001600160a01b03821615155b156111fb575f61114984610ccb565b90506001600160a01b038316158015906111755750826001600160a01b0316816001600160a01b031614155b801561118857506111868184610c64565b155b156111b15760405163a9fbf51f60e01b81526001600160a01b03841660048201526024016106f1565b81156111f95783856001600160a01b0316826001600160a01b03167f8c5be1e5ebec7d5bd14f71427d1e84f3dd0314c0f7b2291e5b200ac8c7c3b92560405160405180910390a45b505b50505f90815260046020526040902080546001600160a01b0319166001600160a01b0392909216919091179055565b611234838361137c565b6109b1335f858585610f6f565b61124c8383836113dd565b6109b1576001600160a01b03831661127a57604051637e27328960e01b8152600481018290526024016106f1565b60405163177e802f60e01b81526001600160a01b0383166004820152602481018290526044016106f1565b5f8072184f03e93ff9f4daa797ed6e38ed64bf6a1f0160401b83106112e35772184f03e93ff9f4daa797ed6e38ed64bf6a1f0160401b830492506040015b6d04ee2d6d415b85acef8100000000831061130f576d04ee2d6d415b85acef8100000000830492506020015b662386f26fc10000831061132d57662386f26fc10000830492506010015b6305f5e1008310611345576305f5e100830492506008015b612710831061135957612710830492506004015b6064831061136b576064830492506002015b600a831061053e5760010192915050565b6001600160a01b0382166113a557604051633250574960e11b81525f60048201526024016106f1565b5f6113b183835f610d61565b90506001600160a01b038116156109b1576040516339e3563760e11b81525f60048201526024016106f1565b5f6001600160a01b038316158015906109e65750826001600160a01b0316846001600160a01b0316148061141657506114168484610c64565b806109e65750505f908152600460205260409020546001600160a01b03908116911614919050565b6001600160e01b031981168114610994575f80fd5b5f60208284031215611463575f80fd5b8135610c5d8161143e565b5f81518084528060208401602086015e5f602082860101526020601f19601f83011685010191505092915050565b602081525f610c5d602083018461146e565b5f602082840312156114be575f80fd5b5035919050565b80356001600160a01b03811681146114db575f80fd5b919050565b5f80604083850312156114f1575f80fd5b6114fa836114c5565b946020939093013593505050565b634e487b7160e01b5f52604160045260245ffd5b604051601f8201601f1916810167ffffffffffffffff8111828210171561154557611545611508565b604052919050565b5f806040838503121561155e575f80fd5b8235915060208084013567ffffffffffffffff8082111561157d575f80fd5b818601915086601f830112611590575f80fd5b8135818111156115a2576115a2611508565b8060051b91506115b384830161151c565b81815291830184019184810190898411156115cc575f80fd5b938501935b838510156115ea578435825293850193908501906115d1565b8096505050505050509250929050565b5f805f6060848603121561160c575f80fd5b611615846114c5565b9250611623602085016114c5565b9150604084013590509250925092565b5f60208284031215611643575f80fd5b610c5d826114c5565b5f806040838503121561165d575f80fd5b611666836114c5565b91506020830135801515811461167a575f80fd5b809150509250929050565b5f805f8060808587031215611698575f80fd5b6116a1856114c5565b935060206116b08187016114c5565b935060408601359250606086013567ffffffffffffffff808211156116d3575f80fd5b818801915088601f8301126116e6575f80fd5b8135818111156116f8576116f8611508565b61170a601f8201601f1916850161151c565b9150808252898482850101111561171f575f80fd5b80848401858401375f8482840101525080935050505092959194509250565b5f806040838503121561174f575f80fd5b611758836114c5565b9150611766602084016114c5565b90509250929050565b600181811c9082168061178357607f821691505b6020821081036117a157634e487b7160e01b5f52602260045260245ffd5b50919050565b5f602082840312156117b7575f80fd5b5051919050565b634e487b7160e01b5f52601160045260245ffd5b808202811582820484141761053e5761053e6117be565b634e487b7160e01b5f52601260045260245ffd5b5f8261180b5761180b6117e9565b500490565b8082018082111561053e5761053e6117be565b8181038181111561053e5761053e6117be565b805169ffffffffffffffffffff811681146114db575f80fd5b5f805f805f60a08688031215611863575f80fd5b61186c86611836565b945060208601519350604086015192506060860151915061188f60808701611836565b90509295509295909350565b5f81518060208401855e5f93019283525090919050565b5f6109e66118c0838661189b565b8461189b565b634e487b7160e01b5f52603260045260245ffd5b5f826118e8576118e86117e9565b500690565b6001600160a01b03858116825284166020820152604081018390526080606082018190525f9061191f9083018461146e565b9695505050505050565b5f60208284031215611939575f80fd5b8151610c5d8161143e56fea264697066735822122030537b0c3e863f3b1a6d4ccb29aec628b2dfbdeb17fd7d7e8ab4a9b78e5a870364736f6c63430008190033","linkReferences":{}},"methodIdentifiers":{"PRICE_IN_USD()":"914db51a","approve(address,uint256)":"095ea7b3","balanceOf(address)":"70a08231","getApproved(uint256)":"081812fc","getConversionRate(uint256)":"6e5b6b28","getNFTPrice(uint256)":"92976179","getThePrice()":"8c3c9a55","getVersion()":"0d8e6e2c","isApprovedForAll(address,address)":"e985e9c5","mintNFT()":"14f710fe","name()":"06fdde03","nftPrices(uint256)":"d9f10a2b","owner()":"8da5cb5b","ownerOf(uint256)":"6352211e","randomResult()":"42619f66","rawFulfillRandomWords(uint256,uint256[])":"1fe543e3","renounceOwnership()":"715018a6","requestRandomNumber()":"8678a7b2","safeTransferFrom(address,address,uint256)":"42842e0e","safeTransferFrom(address,address,uint256,bytes)":"b88d4fde","setApprovalForAll(address,bool)":"a22cb465","supportsInterface(bytes4)":"01ffc9a7","symbol()":"95d89b41","tokenURI(uint256)":"c87b56dd","totalSupply()":"18160ddd","transferFrom(address,address,uint256)":"23b872dd","transferOwnership(address)":"f2fde38b","withdraw()":"3ccfd60b"},"id":49}