{"abi":[{"type":"constructor","inputs":[{"name":"_priceFeed","type":"address","internalType":"address"}],"stateMutability":"nonpayable"},{"type":"function","name":"fund","inputs":[],"outputs":[],"stateMutability":"payable"},{"type":"function","name":"getConversionRate","inputs":[{"name":"ethAmount","type":"uint256","internalType":"uint256"}],"outputs":[{"name":"","type":"uint256","internalType":"uint256"}],"stateMutability":"view"},{"type":"function","name":"getThePrice","inputs":[],"outputs":[{"name":"","type":"int256","internalType":"int256"}],"stateMutability":"view"},{"type":"function","name":"getVersion","inputs":[],"outputs":[{"name":"","type":"uint256","internalType":"uint256"}],"stateMutability":"view"}],"bytecode":{"object":"0x6080604052348015600e575f80fd5b506040516103cb3803806103cb833981016040819052602b91604e565b5f80546001600160a01b0319166001600160a01b03929092169190911790556079565b5f60208284031215605d575f80fd5b81516001600160a01b03811681146072575f80fd5b9392505050565b610345806100865f395ff3fe60806040526004361061003e575f3560e01c80630d8e6e2c146100425780636e5b6b28146100685780638c3c9a5514610087578063b60d42881461009b575b5f80fd5b34801561004d575f80fd5b506100566100a5565b60405190815260200160405180910390f35b348015610073575f80fd5b5061005661008236600461022f565b61011e565b348015610092575f80fd5b50610056610150565b6100a36101c6565b005b5f805f9054906101000a90046001600160a01b03166001600160a01b03166354fd4d506040518163ffffffff1660e01b8152600401602060405180830381865afa1580156100f5573d5f803e3d5ffd5b505050506040513d601f19601f820116820180604052508101906101199190610246565b905090565b5f80610128610150565b90505f670de0b6b3a764000061013e858461025d565b6101489190610286565b949350505050565b5f805460408051633fabe5a360e21b8152905183926001600160a01b03169163feaf968c9160048083019260a09291908290030181865afa158015610197573d5f803e3d5ffd5b505050506040513d601f19601f820116820180604052508101906101bb91906102c3565b509195945050505050565b6802b5e3af16b1880000806101da3461011e565b101561022c5760405162461bcd60e51b815260206004820152601b60248201527f596f75206e65656420746f207370656e64206d6f726520455448210000000000604482015260640160405180910390fd5b50565b5f6020828403121561023f575f80fd5b5035919050565b5f60208284031215610256575f80fd5b5051919050565b808202811582820484141761028057634e487b7160e01b5f52601160045260245ffd5b92915050565b5f826102a057634e487b7160e01b5f52601260045260245ffd5b500490565b805169ffffffffffffffffffff811681146102be575f80fd5b919050565b5f805f805f60a086880312156102d7575f80fd5b6102e0866102a5565b9450602086015193506040860151925060608601519150610303608087016102a5565b9050929550929590935056fea26469706673582212203fe630aa33648c22e80e82617db855ed9386466a0d079b97eb316daf4ed91ec464736f6c63430008190033","linkReferences":{}},"methodIdentifiers":{"fund()":"b60d4288","getConversionRate(uint256)":"6e5b6b28","getThePrice()":"8c3c9a55","getVersion()":"0d8e6e2c"},"id":2}