{"abi":[{"type":"function","name":"getLatestRoundData","inputs":[{"name":"dataFeedAddress","type":"address","internalType":"address"}],"outputs":[{"name":"roundId","type":"uint80","internalType":"uint80"},{"name":"answer","type":"int256","internalType":"int256"},{"name":"startedAt","type":"uint256","internalType":"uint256"},{"name":"updatedAt","type":"uint256","internalType":"uint256"},{"name":"answeredInRound","type":"uint80","internalType":"uint80"}],"stateMutability":"nonpayable"}],"bytecode":{"object":"0x6080604052348015600e575f80fd5b506108b78061001c5f395ff3fe608060405234801561000f575f80fd5b5060043610610029575f3560e01c8063725e6f0a1461002d575b5f80fd5b61004061003b36600461013a565b61007b565b6040805169ffffffffffffffffffff968716815260208101959095528401929092526060830152909116608082015260a00160405180910390f35b5f805f805f808660405161008e9061012d565b6001600160a01b039091168152602001604051809103905ff0801580156100b7573d5f803e3d5ffd5b509050806001600160a01b0316632daae2f36040518163ffffffff1660e01b815260040160a060405180830381865afa1580156100f6573d5f803e3d5ffd5b505050506040513d601f19601f8201168201806040525081019061011a9190610185565b939b929a50909850965090945092505050565b6106b0806101d283390190565b5f6020828403121561014a575f80fd5b81356001600160a01b0381168114610160575f80fd5b9392505050565b805169ffffffffffffffffffff81168114610180575f80fd5b919050565b5f805f805f60a08688031215610199575f80fd5b6101a286610167565b94506020860151935060408601519250606086015191506101c560808701610167565b9050929550929590935056fe6080604052600c805462ff00ff191662010001179055348015601f575f80fd5b506040516106b03803806106b0833981016040819052603c91606a565b600c80546001600160a01b039092166301000000026301000000600160b81b03199092169190911790556095565b5f602082840312156079575f80fd5b81516001600160a01b0381168114608e575f80fd5b9392505050565b61060e806100a25f395ff3fe608060405234801561000f575f80fd5b5060043610610085575f3560e01c80639a6fc8f5116100585780639a6fc8f51461012a578063c04062261461013d578063f0141d841461013f578063f8ccbf4714610159575f80fd5b80630d8e6e2c146100895780631a092541146100a45780632daae2f3146100b95780635d445e56146100f8575b5f80fd5b61009161017c565b6040519081526020015b60405180910390f35b6100ac6101fc565b60405161009b919061041d565b6100c1610279565b6040805169ffffffffffffffffffff968716815260208101959095528401929092526060830152909116608082015260a00161009b565b600c5461011290630100000090046001600160a01b031681565b6040516001600160a01b03909116815260200161009b565b6100c161013836600461046c565b610309565b005b6101476103a3565b60405160ff909116815260200161009b565b600c5461016c9062010000900460ff1681565b604051901515815260200161009b565b5f80600c60039054906101000a90046001600160a01b03169050806001600160a01b03166354fd4d506040518163ffffffff1660e01b8152600401602060405180830381865afa1580156101d2573d5f803e3d5ffd5b505050506040513d601f19601f820116820180604052508101906101f6919061048e565b91505090565b60605f600c60039054906101000a90046001600160a01b03169050806001600160a01b0316637284e4166040518163ffffffff1660e01b81526004015f60405180830381865afa158015610252573d5f803e3d5ffd5b505050506040513d5f823e601f3d908101601f191682016040526101f691908101906104b9565b5f805f805f80600c60039054906101000a90046001600160a01b03169050806001600160a01b031663feaf968c6040518163ffffffff1660e01b815260040160a060405180830381865afa1580156102d3573d5f803e3d5ffd5b505050506040513d601f19601f820116820180604052508101906102f79190610564565b95509550955095509550509091929394565b600c54604051639a6fc8f560e01b815269ffffffffffffffffffff831660048201525f918291829182918291630100000090046001600160a01b0316908190639a6fc8f59060240160a060405180830381865afa15801561036c573d5f803e3d5ffd5b505050506040513d601f19601f820116820180604052508101906103909190610564565b939b929a50909850965090945092505050565b5f80600c60039054906101000a90046001600160a01b03169050806001600160a01b031663313ce5676040518163ffffffff1660e01b8152600401602060405180830381865afa1580156103f9573d5f803e3d5ffd5b505050506040513d601f19601f820116820180604052508101906101f691906105b8565b602081525f82518060208401528060208501604085015e5f604082850101526040601f19601f83011684010191505092915050565b69ffffffffffffffffffff81168114610469575f80fd5b50565b5f6020828403121561047c575f80fd5b813561048781610452565b9392505050565b5f6020828403121561049e575f80fd5b5051919050565b634e487b7160e01b5f52604160045260245ffd5b5f602082840312156104c9575f80fd5b815167ffffffffffffffff808211156104e0575f80fd5b818401915084601f8301126104f3575f80fd5b815181811115610505576105056104a5565b604051601f8201601f19908116603f0116810190838211818310171561052d5761052d6104a5565b81604052828152876020848701011115610545575f80fd5b8260208601602083015e5f928101602001929092525095945050505050565b5f805f805f60a08688031215610578575f80fd5b855161058381610452565b8095505060208601519350604086015192506060860151915060808601516105aa81610452565b809150509295509295909350565b5f602082840312156105c8575f80fd5b815160ff81168114610487575f80fdfea26469706673582212205174b7789390a230605257281963fc56125f42b00170f3625045f6476df1182d64736f6c63430008190033a264697066735822122022d9e4446955826054202c14de79804c385494601a6e73209c60ffe1caad365864736f6c63430008190033","linkReferences":{}},"methodIdentifiers":{"getLatestRoundData(address)":"725e6f0a"},"id":31}